{
  "contractName": "Counter",
  "abi": [
    {
      "inputs": [],
      "name": "IncrementCount",
      "outputs": [],
      "stateMutability": "nonpayable",
      "type": "function"
    },
    {
      "inputs": [],
      "name": "DecrementCount",
      "outputs": [],
      "stateMutability": "nonpayable",
      "type": "function"
    },
    {
      "inputs": [],
      "name": "ViewCount",
      "outputs": [
        {
          "internalType": "uint256",
          "name": "",
          "type": "uint256"
        }
      ],
      "stateMutability": "view",
      "type": "function"
    }
  ],
  "bytecode": "0x60806040526000805534801561001457600080fd5b5060d0806100236000396000f3fe6080604052348015600f57600080fd5b5060043610603c5760003560e01c806330498ce61460415780633d20db25146049578063aef92fc1146051575b600080fd5b6047606d565b005b604f607f565b005b60576091565b6040518082815260200191505060405180910390f35b60016000808282540392505081905550565b60016000808282540192505081905550565b6000805490509056fea2646970667358221220f5f2ed75a369f4bc4b2533901d704a1944f806061a3c53ebe4a04af1b93661bd64736f6c634300060c0033",
  "immutableReferences": {},
  "source": " // SPDX-License-Identifier: MIT\r\npragma solidity >=0.4.21 <8.10.0;\r\n\r\ncontract Counter {\r\n  uint count = 0;\r\n  \r\n  function IncrementCount() public{\r\n    count += 1;\r\n  }\r\n\r\n  function DecrementCount() public {\r\n    count -= 1;\r\n  }\r\n\r\n  function ViewCount() public view returns (uint) {\r\n    return count;\r\n  }\r\n  \r\n}\r\n",
  "sourcePath": "C:\\BlockFinal2\\contracts\\Counter.sol",
  "compiler": {
    "name": "solc",
    "version": "0.6.12+commit.27d51765.Emscripten.clang"
  },
  "schemaVersion": "3.4.11",
  "updatedAt": "2022-11-27T04:49:31.098Z",
  "devdoc": {
    "kind": "dev",
    "methods": {},
    "version": 1
  },
  "userdoc": {
    "kind": "user",
    "methods": {},
    "version": 1
  }
}